:020000040000fa
:080000000002040000000000f2
:020000040000fa
:04000800760300007b
:020000040000fa
:04000c00b803000035
:020000040000fa
:04001000f8030000f1
:020000040000fa
:04001400960300004f
:020000040000fa
:04001800d803000009
:020000040000fa
:04001c007805000063
:020000040000fa
:0400200018040000c0
:020000040000fa
:04002400780500005b
:020000040000fa
:040028007805000057
:020000040000fa
:04002c007805000053
:020000040000fa
:04003000780500004f
:020000040000fa
:04003400780500004b
:020000040000fa
:040038007805000047
:020000040000fa
:04003c007805000043
:020000040000fa
:04004000780500003f
:020000040000fa
:04004400780500003b
:020000040000fa
:040048007805000037
:020000040000fa
:04004c007805000033
:020000040000fa
:04005000780500002f
:020000040000fa
:04005400ee040000b6
:020000040000fa
:040058008e04000012
:020000040000fa
:04005c007805000023
:020000040000fa
:04006000780500001f
:020000040000fa
:04006400780500001b
:020000040000fa
:040068007004000020
:020000040000fa
:04006c00520400003a
:020000040000fa
:04007000780500000f
:020000040000fa
:04007400780500000b
:020000040000fa
:040078007805000007
:020000040000fa
:04007c007805000003
:020000040000fa
:0400800078050000ff
:020000040000fa
:0400840078050000fb
:020000040000fa
:0400880078050000f7
:020000040000fa
:04008c0078050000f3
:020000040000fa
:0400900078050000ef
:020000040000fa
:0400940078050000eb
:020000040000fa
:0400980078050000e7
:020000040000fa
:04009c0078050000e3
:020000040000fa
:0400a00078050000df
:020000040000fa
:0400a40078050000db
:020000040000fa
:0400a80078050000d7
:020000040000fa
:0400ac0078050000d3
:020000040000fa
:0400b00078050000cf
:020000040000fa
:0400b40078050000cb
:020000040000fa
:0400b80078050000c7
:020000040000fa
:0400bc0078050000c3
:020000040000fa
:0400c00078050000bf
:020000040000fa
:0400c40078050000bb
:020000040000fa
:0400c80078050000b7
:020000040000fa
:0400cc0078050000b3
:020000040000fa
:0400d00078050000af
:020000040000fa
:0400d40078050000ab
:020000040000fa
:0400d80078050000a7
:020000040000fa
:0400dc0078050000a3
:020000040000fa
:0400e000780500009f
:020000040000fa
:0400e400780500009b
:020000040000fa
:0400e8007805000097
:020000040000fa
:0400ec005a050000b1
:020000040000fa
:0400f000780500008f
:020000040000fa
:0400f400780500008b
:020000040000fa
:0400f8007805000087
:020000040000fa
:0400fc007805000083
:020000040000fa
:04010000780500007e
:020000040000fa
:04010400780500007a
:020000040000fa
:040108007805000076
:020000040000fa
:04010c007805000072
:020000040000fa
:04011000780500006e
:020000040000fa
:04011400780500006a
:020000040000fa
:040118007805000066
:020000040000fa
:04011c007805000062
:020000040000fa
:04012000780500005e
:020000040000fa
:04012400780500005a
:020000040000fa
:040128007805000056
:020000040000fa
:04012c007805000052
:020000040000fa
:04013000780500004e
:020000040000fa
:04013400780500004a
:020000040000fa
:040138007805000046
:020000040000fa
:04013c007805000042
:020000040000fa
:04014000780500003e
:020000040000fa
:04014400780500003a
:020000040000fa
:040148007805000036
:020000040000fa
:04014c007805000032
:020000040000fa
:04015000780500002e
:020000040000fa
:04015400780500002a
:020000040000fa
:040158007805000026
:020000040000fa
:04015c007805000022
:020000040000fa
:04016000780500001e
:020000040000fa
:04016400780500001a
:020000040000fa
:040168007805000016
:020000040000fa
:04016c007805000012
:020000040000fa
:04017000780500000e
:020000040000fa
:04017400780500000a
:020000040000fa
:040178007805000006
:020000040000fa
:04017c007805000002
:020000040000fa
:0401800078050000fe
:020000040000fa
:0401840078050000fa
:020000040000fa
:0401880078050000f6
:020000040000fa
:04018c0078050000f2
:020000040000fa
:0401900078050000ee
:020000040000fa
:0401940078050000ea
:020000040000fa
:0401980078050000e6
:020000040000fa
:04019c0078050000e2
:020000040000fa
:0401a00078050000de
:020000040000fa
:0401a40078050000da
:020000040000fa
:0401a80078050000d6
:020000040000fa
:0401ac0078050000d2
:020000040000fa
:0401b00078050000ce
:020000040000fa
:0401b40078050000ca
:020000040000fa
:0401b80078050000c6
:020000040000fa
:0401bc0078050000c2
:020000040000fa
:0401c00078050000be
:020000040000fa
:0401c40078050000ba
:020000040000fa
:0401c80078050000b6
:020000040000fa
:0401cc0078050000b2
:020000040000fa
:0401d00078050000ae
:020000040000fa
:0401d40078050000aa
:020000040000fa
:0401d80078050000a6
:020000040000fa
:0401dc0078050000a2
:020000040000fa
:0401e000780500009e
:020000040000fa
:0401e400780500009a
:020000040000fa
:0401e8007805000096
:020000040000fa
:0401ec007805000092
:020000040000fa
:0401f000780500008e
:020000040000fa
:0401f400780500008a
:020000040000fa
:0401f8007805000086
:020000040000fa
:0401fc007805000082
:020000040000fa
:04020000780500007d
:020000040000fa
:040204007805000079
:020000040000fa
:040208007805000075
:020000040000fa
:04020c007805000071
:020000040000fa
:04021000780500006d
:020000040000fa
:040214007805000069
:020000040000fa
:040218007805000065
:020000040000fa
:04021c007805000061
:020000040000fa
:04022000780500005d
:020000040000fa
:040224007805000059
:020000040000fa
:040228007805000055
:020000040000fa
:04022c007805000051
:020000040000fa
:04023000780500004d
:020000040000fa
:040234007805000049
:020000040000fa
:040238007805000045
:020000040000fa
:04023c007805000041
:020000040000fa
:04024000780500003d
:020000040000fa
:040244007805000039
:020000040000fa
:040248007805000035
:020000040000fa
:04024c007805000031
:020000040000fa
:04025000780500002d
:020000040000fa
:040254007805000029
:020000040000fa
:040258007805000025
:020000040000fa
:04025c007805000021
:020000040000fa
:04026000780500001d
:020000040000fa
:040264007805000019
:020000040000fa
:040268007805000015
:020000040000fa
:04026c007805000011
:020000040000fa
:04027000780500000d
:020000040000fa
:040274007805000009
:020000040000fa
:040278007805000005
:020000040000fa
:04027c007805000001
:020000040000fa
:0402800078050000fd
:020000040000fa
:0402840078050000f9
:020000040000fa
:0402880078050000f5
:020000040000fa
:04028c0078050000f1
:020000040000fa
:0402900078050000ed
:020000040000fa
:0402940078050000e9
:020000040000fa
:0402980078050000e5
:020000040000fa
:04029c0078050000e1
:020000040000fa
:0402a00078050000dd
:020000040000fa
:0402a40078050000d9
:020000040000fa
:0402a80078050000d5
:020000040000fa
:0402ac0078050000d1
:020000040000fa
:0402b00078050000cd
:020000040000fa
:0402b40078050000c9
:020000040000fa
:0402b80078050000c5
:020000040000fa
:0402bc0078050000c1
:020000040000fa
:0402c00078050000bd
:020000040000fa
:0402c40078050000b9
:020000040000fa
:0402c80078050000b5
:020000040000fa
:0402cc0078050000b1
:020000040000fa
:0402d00078050000ad
:020000040000fa
:0402d40078050000a9
:020000040000fa
:0402d80078050000a5
:020000040000fa
:0402dc0078050000a1
:020000040000fa
:0402e000780500009d
:020000040000fa
:0402e4007805000099
:020000040000fa
:0402e8007805000095
:020000040000fa
:0402ec007805000091
:020000040000fa
:0402f000780500008d
:020000040000fa
:0402f4007805000089
:020000040000fa
:0402f8007805000085
:020000040000fa
:0402fc007805000081
:020000040000fa
:04030000780500007c
:020000040000fa
:040304007805000078
:020000040000fa
:040308007805000074
:020000040000fa
:04030c007805000070
:020000040000fa
:04031000780500006c
:020000040000fa
:040314007805000068
:020000040000fa
:040318007805000064
:020000040000fa
:04031c007005000068
:020000040000fa
:04032000780500005c
:020000040000fa
:040324007805000058
:020000040000fa
:040328007805000054
:020000040000fa
:04032c007805000050
:020000040000fa
:04033000780500004c
:020000040000fa
:040334007805000048
:020000040000fa
:100400008f1c21000eff26000e0188000000000056
:10041000000020000000e000020032000001200087
:100420002002880014000700d80107000000e00047
:1004300003003a006076210001002000020037002e
:100440000000200001002000810f70000100320038
:100450000f000700000020000000e0000200320052
:1004600000000200000000007619020000000000f9
:100470000040da000000fe00601e20000000e000e6
:1004800002003200002020009001880000000600d9
:10049000a1028800800478000000eb001f003700f4
:1004a000e284440054a0b4009905ba00e2844400f8
:1004b00054a0b4009906ba00e284440054a0b400e9
:1004c0000006eb00476fde00fd07b200ae018800ba
:1004d000636ce10003003a000ad801000000eb0061
:1004e0000e003700606ce10008003a00004deb00a0
:1004f0000a05e800020039003420ec000af0a000f0
:100500008b05e900f9ff3e00040037006168e10057
:10051000010032000086eb000b00070019c7ba008b
:100520001905ba000e04e00003003a000a00e000da
:10053000dbff3a0000000600fe07b200ae028800b2
:100540008a047800f5ff37000cd0a300e20f4d00bd
:100550001c003b0089027800354dba000a05e8000e
:10056000020039003420ec000af0a0008b05e900fd
:100570000f003200254dba000a05e80002003900dc
:100580003420ec000af0a0008b05e90008003200de
:100590000c00e0000600320015cdba000a05e800a4
:1005a000020039003420ec000af0a0008b05e900bd
:1005b0008984e80054a0b4000b00e000e2ff3a0098
:1005c000000006009902ba00055d78008b05e9007d
:1005d000f7ff3200c82ade00055d78008b05e900d0
:1005e000f3ff32000c00e000f1ff320019ddba0029
:1005f000eeff370098120400000000002e190400de
:10060000000000000e130400000000007613040038
:1006100000000000c4130400000000000e140400d9
:1006200000000000ec0c040000000000f60c0400c8
:1006300000000000e40c040000000000bc0c0400fa
:10064000000000004a0b040000000000840b0400be
:1006500000000000a00b040000000000060c0400d5
:1006600000000000520c040000000000b60b040063
:1006700000000000900c0400000000005c0b04006f
:1006800000000000660b040000000000700b040076
:10069000000000007a0b040000000000c60b0400fc
:1006a00000000000d00b040000000000da0b040082
:1006b00000000000360b040000000000e40b040002
:1006c00000000000b40d040000000000d20d040082
:1006d0000000000068060400000000001606040088
:1006e00000000000e2050400000000003600f800f1
:1006f000809fbe00829fbe00849fbe00869fbe007a
:100700000000fa00c028a9000000eb00eb0a070077
:100710000080fa004f03be004f02be004f01be0032
:100720004f00be003600f900004006003600f80019
:10073000809fbe00829fbe00849fbe00869fbe0039
:100740000000fa00e20a0700c048a90010002000db
:10075000da0a07000080fa004f03be004f02be0015
:100760004f01be004f00be003600f90000400600f9
:100770003600f800809fbe00829fbe00849fbe00ae
:10078000869fbe000000fa00c068a900200020007b
:10079000ca0a07000080fa004f03be004f02be00e5
:1007a0004f01be004f00be003600f90000400600b9
:1007b0003600f800809fbe00829fbe00849fbe006e
:1007c000869fbe000000fa00c088a900300020000b
:1007d000ba0a07000080fa004f03be004f02be00b5
:1007e0004f01be004f00be003600f9000040060079
:1007f0003600f800809fbe00829fbe00849fbe002e
:10080000869fbe000000fa00c608a9007000200004
:10081000aa0a07000080fa004f03be004f02be0084
:100820004f01be004f00be003600f9000040060038
:100830003600f800809fbe00829fbe00849fbe00ed
:10084000869fbe000000fa002146800000102000b4
:10085000008060000000e00003003200c508a9002d
:10086000c0002000950a070020468000700060004c
:100870000000e00003003200c488a900a0002000ae
:100880008e0a070020468000610060000000e00042
:1008900003003200c408a900b0002000870a070046
:1008a000ffff37003600f800809fbe00829fbe0029
:1008b000849fbe00869fbe000000fa0080808000fa
:1008c000000001000080fa004f03be004f02be008e
:1008d0004f01be004f00be003600f9000040060088
:1008e0003600f800809fbe00829fbe00849fbe003d
:1008f000869fbe000000fa0090808000000001008a
:100900000080fa004f03be004f02be004f01be0040
:100910004f00be003600f900004006003600f80027
:10092000809fbe00829fbe00849fbe00869fbe0047
:100930000000fa00508080000000e0000200320059
:100940005080800000000100318080002080800005
:10095000808f500002003a002188a900180037005b
:100960000188a90010003700308080009040780096
:100970008180fb00411288000000e8003080880080
:100980003180800050112100808f500002003a0019
:10099000600121003080880031808000208080004c
:1009a000808f500005003200f01180007000600060
:1009b0000000e000ecff3200010037000000000002
:1009c0000080fa004f03be004f02be004f01be0080
:1009d0004f00be003600f900004006003600f80067
:1009e000809fbe00829fbe00849fbe00869fbe0087
:1009f0000000fa00608080000000e0000200320089
:100a000060808000000001000168a9001e0037001e
:100a10000080800021128000814078000148780029
:100a200001808000d0112100808f50000900320029
:100a3000008080008000e80010808000808f5000df
:100a400004003200008080000000e8000080880080
:100a50000d00370001808000d0112100808f5000f0
:100a600007003a001180800050112100808f500053
:100a7000030032005011210000808800020037007e
:100a800010c0b30008f0b700f011800062006000f1
:100a90000000e000deff32000080fa004f03be00dd
:100aa0004f02be004f01be004f00be003600f900ed
:100ab00000400600801f78000000fa00e01180006e
:100ac000620060000000e000010032003c22a9004a
:100ad0000628a9000080fa004f00780000400600b8
:100ae0000000fa0017a8a9000080fa0000400600e4
:100af0000040da000000fe000a00fa0011002000a9
:100b0000b1bf9f00c0bf9f006a805700130107005c
:100b10004fb897000080fa00000006000a00fa00b3
:100b2000200798003107980042079800be00900007
:100b3000110798000000eb00000f78000c00370050
:100b400000000000500407000004a2000004e000c0
:100b5000fcff3a001e009000104078009e009000bc
:100b60008100e80011079800270407001e0fe80025
:100b70004e0090009e007800808f5000f0ff3900fa
:100b80004e0090000080fa00000006000000050002
:100b9000f1888000910078007900070011002000a2
:100ba0000000e00005003500f0888000900078002b
:100bb000a0002000c2000700cf00de000100ea0014
:100bc00000000600000006004012210000000600a0
:100bd000fdff0700108988000089880000000600da
:100be000889fbe00000478004800900082047800ce
:100bf000808f5400010036008004780009017800dd
:100c00005800900090000700580090000900400034
:100c100050049800c800900089845000490498004e
:100c20000048eb004f04be000000060010007800f2
:100c3000baff3700900190000388a3000100320042
:100c4000e7ff37000348a30001003a00f7ff070061
:100c500000000600889fbe000004be000000eb00fc
:100c60000800e00018003200180090000058a300af
:100c70000d003200d800900068009000808f500076
:100c800009003600b80990000001eb0082007800ee
:100c90000800780003000100d80090000080eb00fd
:100ca0000100e000080032000000eb00200c98007a
:100cb00060049800500498000900e000020032002f
:100cc000180078008cff07004f04be0000000600eb
:100cd000889fbe000004be000000eb000800e0009a
:100ce00025003200180090000058a30011003200c7
:100cf000d800900068009000808f500009003600f6
:100d0000b80990000001eb0082007800080078002c
:100d100003000100d80090000080eb000100e0001b
:100d2000150032000000eb00200c980060049800d1
:100d300050049800780a900008109000800f52002c
:100d4000060031000002520011002000cfa2de0098
:100d5000612bb90018007800350007000000eb0097
:100d600000149800700c98000900e00002003200a6
:100d70001800780060ff07004f04be000000060066
:100d8000889fbe008a1f78008004780001057800e3
:100d9000090078004b000700000478008a01780001
:100da0000801780011002000090078000a000700ff
:100db000800078000080eb00888f500001003a002e
:100dc0000000eb004f0578004f04be000000060055
:100dd0001000780051ff3700889fbe008a1f7800fe
:100de000810478000204780089c5b9000900e00098
:100df00001003a000004eb000a017800800078004e
:100e00000300780089ff0700800078008a8f500077
:100e100003003200050009008980d8000004780032
:100e2000080078004f0578004f04be00000006005f
:100e3000a0fd2f00f1ff2f003a0007004f89de00d0
:100e4000820178000000060080017800020037006f
:100e5000b15978000201e9000200e000fcff3a000d
:100e6000000006000200fa0081017800e0ff9f0008
:100e7000930090000188a30005003200d300900089
:100e8000805878000080fb00d10198000a003700ec
:100e9000120020008f80e9000300780063ff070044
:100ea000800078000080eb000100e00002003200ca
:100eb000eff897000180fb000080fa0000000600b8
:100ec000e8ff370080007800040037003104e000bc
:100ed00002003a0000005100000006000101780005
:100ee0000108a300f9ff3a00810178003101780080
:100ef000f4ef2f00020242000281ea0002016200c8
:100f00000408280004016100f7ff32008300780024
:100f1000010178003104e000fdff3a0000005100bb
:100f20000000060002002f00f3ff2f00820f500088
:100f3000838f5800040036000000ea00308e8800dd
:100f40000080eb008080eb0000000600000006003f
:100f50001fff0700fdff0700fcff370000c0da009d
:040f60000000060087
:020000040000fa
:100f6400000000000000000000000000005f00001e
:100f7400000000000007000000070000001400004b
:100f84007f1400007f140000242a00007f2a000040
:100f940012230000130800006462000036490000b8
:100fa400552200005000000005030000000000006e
:100fb400001c00002241000000000000412200004b
:100fc4001c000000140800003e0800001408000083
:100fd400083e000008080000005000003000000037
:100fe4000008000008080000080800000060000075
:100ff400600000000020000010080000040200004f
:101004003e510000494500003e000000427f0000c0
:1010140040000000426100005149000046210000e8
:10102400414500004b31000018140000127f0000fd
:101034001027000045450000453900003c4a0000e7
:101044004949000030010000710900000503000057
:1010540036490000494900003606000049490000ad
:10106400291e0000003600003600000000000000c9
:101074005636000000000000081400002241000061
:1010840000140000141400001414000000410000b7
:1010940022140000080200000151000009060000ab
:1010a40032490000794100003e7e00001111000029
:1010b400117e00007f49000049490000363e0000cf
:1010c40041410000412200007f4100004122000014
:1010d4001c7f000049490000494100007f090000cd
:1010e40009090000013e000041490000497a00005e
:1010f4007f080000080800007f000000417f000016
:101104004100000020400000413f0000017f00003a
:1011140008140000224100007f400000404000000d
:10112400407f0000020c0000027f00007f040000ea
:10113400081000007f3e000041410000413e0000d5
:101144007f09000009090000063e0000415100002b
:10115400215e00007f0900001929000046460000b6
:101164004949000049310000010100007f010000ed
:10117400013f000040400000403f00001f200000ed
:10118400402000001f3f000040380000403f0000a6
:1011940063140000081400006307000008700000d6
:1011a40008070000615100004945000043000000a9
:1011b4007f4100004100000002040000081000000c
:1011c40020000000414100007f00000004020000f4
:1011d40001020000044000004040000040400000c4
:1011e400000100000204000000200000545400002c
:1011f400547800007f480000444400003838000060
:1012040044440000442000003844000044480000e6
:101214007f3800005454000054180000087e000079
:1012240009010000020c000052520000523e00006e
:101234007f0800000404000078000000447d0000e2
:101244004000000020400000443d0000007f0000fa
:101254001028000044000000004100007f4000000e
:10126400007c000004180000047800007c080000e2
:1012740004040000783800004444000044380000ae
:101284007c1400001414000008080000141400006a
:10129400187c00007c0800000404000008480000da
:1012a4005454000054200000043f00004440000057
:1012b400203c000040400000207c00001c20000076
:1012c400402000001c3c000040300000403c000076
:1012d4004428000010280000440c00005050000076
:1012e400503c000044640000544c000044000000e2
:1012f4000836000041000000000000007f000000ec
:101304000000000041360000080000001008000042
:1013140008100000087800004641000046780000ec
:0c132400486500006c6c00006f000000c9
:020000040000fa
:101330000400fa00000f7800110798001e019000c9
:101340009e0078000000eb00ad0107000080fa006d
:10135000000006000400fa00000f78001107980052
:101360001e0190009e00780010002000a4010700dc
:101370000080fa00000006000400fa00000f780068
:10138000110798001e0190009e00780020002000a8
:101390009b0107000080fa00000006000400fa002c
:1013a000000f7800110798001e0190009e00780041
:1013b00030002000920107000080fa0000000600c3
:1013c0000400fa00000f7800110798001e01900039
:1013d0009e00780040002000890107000080fa008c
:1013e000000006000400fa002047980010002000ca
:1013f000000f7800008b8000620060000000e000b9
:1014000032003a0010162100ae40900001487800ea
:10141000008b80000000a100008b8800008b800002
:101420000010a000008b8800008b80000030a1001d
:10143000008b8800e0002000508b8800401f2000b7
:10144000408b8800008b80000020a000008b88006b
:10145000c0ce2000708b88000000eb00d08b88008d
:10146000c0ce2000808b88000000eb00e08b88005d
:10147000c0ce2000908b88000000eb00f08b88002d
:10148000c0ce2000a08b88000000eb00008c8800fc
:1014900060cf2000b08b88000000eb00108c88002b
:1014a0005c0307003903070040ce20000e0407004c
:1014b000c0cb200012040700c0cb20001604070098
:1014c000190307000000eb00000f78001e007800f1
:1014d0000080fa00000006000200fa00004f7800c9
:1014e000101621001e4878000080fa000000060057
:1014f0000200fa0010002000000f7800008b80002e
:10150000610060000000e0000a003a00008b8000eb
:101510000010a100008b88001016210080c0eb0095
:10152000014878001903070013030700618b80004e
:10153000010f78001e0078000080fa00000006000d
:101540000200fa00004f78000b0307001e80fb002a
:10155000408b8800f40207000080fa0000000600bb
:101560000400fa00000f780011079800008b80003b
:10157000640060000000e000070032001e007800f8
:10158000108b88009e009000218b8800008b8000cb
:101590000020a100008b88000080fa0000000600f7
:1015a0000400fa002047980010002000000f780087
:1015b000008b8000610060000000e00013003a0032
:1015c000008b80000000a000008b88000000eb0072
:1015d000000f78002e4090000004e000030032006d
:1015e00010002000508b88000200370020002000ef
:1015f000508b880029030700d00207000004a200d6
:101600000004e000010032000d0007001e00780019
:101610000080fa00000006000000fa0010c0b300cd
:10162000dfff07000080fa00000006000000fa005b
:101630000040eb00daff07000080fa00000006001f
:101640000000fa00030037000000eb00d902070099
:10165000c9000700008b8000610060000000e0000e
:10166000f9ff3a000080fa00000006000000fa00ce
:1016700007030700008b80000000a100008b88009a
:101680000000eb00608b8800e00020000080fa0082
:10169000000006000000fa00008b80000000a1009e
:1016a000008b88000000eb00608b8800e0002000c9
:1016b0000080fa00000006000000fa00fb020700ac
:1016c000100020000080fa00000006000000fa0070
:1016d000f6020700200020000080fa00000006004b
:1016e0000000fa00f1020700100020000080fa005c
:1016f000000006000000fa00f00207000000eb0006
:101700000080fa00000006000000fa00008b800054
:101710000030a000008b88001016210010407800d7
:101720000080fb0000004000004078000004a000a2
:10173000fb020700500020000080fa0000000600b5
:101740000000fa00008b80000030a000008b8800b1
:10175000101621001040780000404000f002070001
:10176000300020000080fa00000006000000fa00af
:10177000008b80000030a100008b8800df02070092
:10178000400020000080fa00000006000000fa007f
:10179000e9020700500020000080fa000000060067
:1017a0000000fa00e9020700a00020000080fa0013
:1017b000000006000000fa00e4020700900020008c
:1017c0000080fa00000006000000fa00008b800094
:1017d0000030a100008b880020002000608b880072
:1017e000918b8000f08b8000010001000080e900f7
:1017f000e10f500002003e00b9ff07000100370072
:10180000bcff07000080fa00000006000000fa009c
:10181000ae0207000004e0000e003200a18b800041
:10182000008c800001000100e20f50000300320034
:10183000e30f500003003200040037009eff070052
:1018400016003700a1ff070014003700a9ff0700aa
:1018500012003700008b80000030a100008b880050
:10186000108b8000904078000000e800108b88000a
:1018700001407800aa020700208b80000000e900e8
:10188000208b8800208b80000000e00002003200e6
:101890003000200001003700600020000080fa00c6
:1018a000000006000000fa00881f7800188b8000f6
:1018b00096020700004c78000800e800108b8800b2
:1018c000208b80000000e900208b8800208b8000a6
:1018d0000000e000030032009702070050002000e3
:1018e0000c003700008b80000020a000008b8800d7
:1018f000718b8000d08b8000010001000080e90026
:10190000e10f500002003e00aaff0700010037006f
:10191000a3ff07004f0478000080fa0000000600d3
:101920000000fa00008b80000020a000008b8800df
:10193000718b8000d08b800001000100e20f50000d
:101940000a003900e30f500003003600e40f500096
:10195000030032000500370061ff07000400370074
:101960000f020700300020000100370061ff070070
:101970000080fa00000006000000fa0003020700e1
:10198000008b8000680060000000e000050032006d
:101990004e0207000004e00002003200f0002000c8
:1019a000508b8800508b800080004000601a21001e
:1019b000008040001000780000000100508b88007b
:1019c0000080fa00000006000000fa00b2020700e2
:1019d0000080fa00000006000200fa00000f780004
:1019e000100020000080fa00000006000200fa004b
:1019f000000f7800500020000080fa000000060070
:101a00000600fa00000f78001107980022079800de
:101a10001e0090000000e0000f0032009e007800e1
:101a200067804000800040000016210000804000d8
:101a30009e009000010878009e0078006d804000b4
:101a4000800040000016210000804000ae009000a1
:101a5000010878000e0037009e0078006780400083
:101a6000800040000016210000804000c1ce200010
:101a7000010878009e0078006d80400080004000e2
:101a800000162100008040008000eb000108780073
:101a90000080fa00000006000000fa002188a9007a
:101aa0002168a90000082000c01188003a22ef0038
:101ab0003c22ef0020022000f01188007006200078
:101ac000001288004222ef004c22ef004e22ef006d
:101ad0005022ef005222ef005422ef005622ef0076
:101ae0005822ef005a22ef005c22ef006001210033
:101af0003080880060012100208088005011210082
:101b00001080880050112100008088000870ef00cc
:101b100040db20000800070020dd20001500070042
:101b20002168a80039e2a80038a2a8003882a800dd
:101b30000080fa00000006000200fa00000f7800a2
:101b40001e0078000000e00003003a0040db2000a7
:101b500050808800020037009e0078005180880085
:101b60000080fa00000006000000fa000080fa0081
:101b7000000006000200fa00000f78001e00780046
:101b80000000e00003003a0020dd200060808800b3
:101b9000020037009e007800618088000080fa0013
:101ba000000006000000fa000080fa0000000600b5
:101bb0000200fa000040eb00004f78000000000037
:101bc0001180800000808000808f5000fcff320078
:101bd00010808000104f7800108080000000e80026
:101be0001080880011808000e0112100808f50005b
:101bf00002003a0050112100108088001e40780039
:101c00000080fa00000006000200fa00004f780091
:101c1000000000001c0007000004a2000004e00017
:101c2000fcff3a00208080001e4878002080800061
:101c30000000e800208088002180800050112100f1
:101c4000808f500002003a0060012100208088004f
:101c50002188a8000080fa00000006000000fa00b9
:101c600011808000008080000080680000f0a700e4
:101c70000000ea000000ea004f00de0000407800ab
:101c80000080fa00000006000400fa0031808000a5
:101c900011079800218080001e009000808f500066
:101ca000060031009e0090002080800000805000df
:101cb0000000e900000f7800050037009e0090004a
:101cc0002080800000805000e00fb000000f7800fe
:101cd0001e00780000f0a7000000ea000000ea0003
:101ce0004f00de00004078000080fa00000006008f
:101cf0000000fa002180800030808000808f50003a
:101d000009003a00e1118000000820000080600016
:101d100000f0a7000000ea000000ea004f00de002b
:101d200000407800010037000040eb000080fa001e
:101d3000000006000400fa000180800011079800ee
:101d4000108080009e009000808f500006003100bf
:101d50009e009000108080000080500069004000cc
:101d6000000f7800030037009e0090001080800074
:101d7000008f5000f00f20009e007800808f5000f0
:101d80000200360000c0eb00020037001e007800a1
:101d9000004078000080fa00000006000400fa000d
:101da0003180800011079800218080001e00900083
:101db000808f5000060031009e009000208080003f
:101dc000008050000000e900000f78000500370097
:101dd0009e0090002080800000805000e00fb00046
:101de000000f7800f00f20009e007800808f5000d8
:101df0000200360000c0eb00020037001e00780031
:101e0000004078000080fa00000006000800fa0098
:101e10002007980031079800c6ff07000080fb00ec
:101e2000000f78003e0090009e0f5000020031002d
:101e3000be009000010f78000000eb001007980032
:101e4000090037005aff0700ae0090008048780074
:101e50002e0090000000e800200798001e0090006f
:101e60000000e800100798001e0090009e0f500030
:101e7000f4ff39001e0078000080fa000000060020
:101e80000800fa002007980031079800c3ff0700f8
:101e90000080fb00000f78003e0090009e0f500075
:101ea00002003100be009000010f78000000eb003e
:101eb00010079800090037002e00900010407800ad
:101ec000ae0090008100e800210798004eff070057
:101ed0001e0090000000e800100798001e0090000f
:101ee0009e0f5000f4ff39001e0078000080fa00b9
:101ef000000006000400fa000000eb00000f78006c
:101f00008cff070020479800a4ff07003047980087
:101f10002e4090000080fb000000e0000300320033
:101f2000e90f500003003200040037001e20a0001b
:101f3000040037001e00a000020037001e10a000a1
:101f4000000000003e4090000080fb000000e00028
:101f500003003200e90f5000030032000400370094
:101f60001e30a000020037001e40a000000000004c
:101f70001e0078000080fa00000006000400fa004d
:101f800010079800118080001e009000008f400014
:101f9000020037009e007800698f5000e011210098
:101fa0009e007800808f5000faff3e001e007800ef
:101fb000104078000080fa00000006000000fa00df
:101fc0005cff07000080fb000000e9004f00de001e
:101fd000004078000080fa00000006000000fa00cf
:101fe0006eff07000080fb000000e9004f00de00ec
:101ff000004078000080fa00000006000400fa00ab
:10200000f01180008000eb00008fbe001e00be00bb
:10201000c001dd0002002000e01180008000eb0024
:1020200000007100818071000080fa00000006004d
:102030000000fa0059ff07000004e0001000320021
:102040003180800020808000808f500006003600a4
:102050003080800080007800208080000080500068
:102060000000e90007003700308080008000780021
:102070002080800000805000e00fb0000100370099
:102080000000eb000080fa00000006000000fa00eb
:1020900028ff07000004e0001000320011808000db
:1020a00000808000808f5000060036001080800085
:1020b0008000780000808000008050000000e9006f
:1020c00007003700108080008000780000808000ca
:1020d0000080500068004000010037000000eb0065
:1020e0000080fa00000006000000fa0039e2a800b3
:1020f00038a2a8003882a8000080fa00000006007c
:102100000000fa0039e2a90038a2a9003882a9002b
:102110000080fa00000006000000fa0001e2a900b9
:102120000080fa00000006000000fa002228a80043
:102130002208a8000080fa00000006000000fa0053
:1021400010418000620060000000e00004003a00de
:1021500010418000610060000000e00002003200d9
:1021600010002000010037000000eb000040780064
:102170000080fa00000006000000fa002228a900f2
:102180002208a9000080fa00000006000000fa0002
:102190000228a9000208a9000080fa000000060039
:1021a0000000fa000228a8000208a8000080fa0037
:1021b000000006000200fa00000f780010408000c6
:1021c000620060000000e00010003a001040800053
:1021d000610060000000e0000c003a001040800048
:1021e000620060000000e00008003a00104080003b
:1021f000610060000000e00004003a0000192000c7
:10220000010020001f040700f4ff37000080fa00df
:10221000000006000000fa00011080000000280005
:10222000008060000000e00007003a000422ef0098
:102230000000280000108800200120008010880085
:1022400010c0b300010037000040eb000080fa002e
:10225000000006000000fa000110800000002800c5
:10226000008060000000e00006003a000222a800a2
:102270000202a80000c2a80001e2a80010c0b3003a
:10228000010037000040eb000080fa00000006006b
:102290000000fa000080fa00000006000000fa00ca
:1022a0000002a8000080fa00000006000000fa000a
:1022b0000022a8000080fa00000006000000fa00da
:1022c0000042a8000080fa00000006000000fa00aa
:1022d00020108000ff800a00000000000080fb004a
:1022e00000f0a7000000ea000000ea004f00de0056
:1022f000004078000080fa00000006000000fa00ac
:102300000062a8000080fa00000006000000fa0049
:10231000c0108000004078000080fa000000060035
:102320000200fa00004f78001e80fb00a010880019
:102330000080fa00000006000000fa0000a2a900d8
:102340000082a8000080fa00000006000000fa00e9
:1023500000a2a8000082a8000080fa000000060089
:102360000000fa000182a8000080fa0000000600c8
:102370000000fa0020108000620060000000e00011
:1023800004003a0020108000610060000000e000be
:102390000200320010002000010037000000eb00b6
:1023a000004078000080fa00000006000000fa00fb
:1023b0002010800033800a00000000000080fb0035
:1023c00000f0a7000000ea000000ea004f00de0075
:1023d000004078000080fa00000006000000fa00cb
:1023e00021108000000220000080600000f0a700a3
:1023f0000000ea000000e9004f00de000040780025
:102400000080fa00000006000000fa0020108000a2
:1024100044800a00000000000080fb0000f0a700dc
:102420000000ea000000ea004f00de0000407800f3
:102430000080fa00000006000000fa002010800072
:1024400055800a00000000000080fb0000f0a7009b
:102450000000ea000000ea004f00de0000407800c3
:102460000080fa00000006000000fa002010800042
:1024700022800a00000000000080fb0000f0a7009e
:102480000000ea000000ea004f00de000040780093
:102490000080fa00000006000000fa000542a900d2
:1024a0000080fa00000006000000fa0002a2a80066
:1024b0000080fa00000006000000fa0002a2a90055
:1024c0000080fa00000006000000fa0002c2a80026
:1024d0000080fa00000006000000fa0002c2a90015
:1024e0000080fa00000006000200fa00000f7800e9
:1024f0009e007800718088000080fa0000000600cd
:102500000200fa00000f78009e00780081808800a9
:102510000080fa00000006000200fa00000f7800b8
:102520009e007800918088000080fa00000006007c
:102530000200fa00000f7800110020001e00780051
:1025400007fc07008000eb000000eb0078fb0700b1
:10255000400020000080fa00000006000400fa009d
:10256000004f7800114798002247980000000000b3
:102570001e4078009bfb07000000e000fcff3200db
:102580000e80e800800078008029210068fb0700a9
:102590000e00e80011002000f1fb07008000eb00b6
:1025a000e092210074fb070020fc070000000000ff
:1025b000cffb0700e10f5000fdff32000080fa0062
:1025c000000006000600fa00004f7800110798008e
:1025d00022079800000000001e40780081fb0700e1
:1025e0000000e000fcff3200ae0090001e009000f2
:1025f000dbfb07008000eb00e09221005efb0700a0
:102600000afc070000000000b9fb0700e10f5000c2
:10261000fdff32000080fa00000006000200fa0010
:10262000000f7800110020001e007800ccfb07008e
:102630008000eb000000eb003dfb070020002000c5
:102640000080fa00000006000800fa0060479800c9
:1026500071479800a0c2b3004047980020002000b6
:10266000000f780019003700000000006e40900055
:102670005cfb07000000e000fcff32006400470044
:1026800080007800e030210029fb07006700470048
:1026900011002000b2fb07008000eb00e092210057
:1026a00035fb0700e1fb070091fb070010079800ce
:1026b0001e009000e10f5000fbff32001e00900052
:1026c0000000e000050032001e0fe9001e00780047
:1026d0000000e000e4ff3a000100370000000000c5
:1026e0004e4090000080fa00000006000200fa0050
:1026f000000f7800210020001e00780098fb0700e2
:102700008000eb000000eb0009fb07002000200028
:102710000080fa00000006000400fa00204798003c
:1027200031479800000000002e4090002dfb07006c
:102730000000e000fcff32008e00780060372100ce
:10274000fbfa0700630047001100200084fb07002c
:102750008000eb00e092210007fb0700b3fb0700bd
:102760000000000062fb0700e10f5000fdff320097
:102770001e007800c800dd004800de000080700008
:102780000080fa00000006000200fa00000f780046
:10279000210020001e00780071fb07008000eb0084
:1027a0000000eb00e2fa0700400020000080fa0081
:1027b000000006000400fa00004f7800114798005e
:1027c00012079800000000001e40780005fb07007b
:1027d0000000e000fcff32000e80e800800078007e
:1027e000403c2100d2fa07000e00e8001100200052
:1027f0005bfb07008000eb00e0922100defa07009f
:102800008afb07000000000039fb0700e10f5000c1
:10281000fdff32000080fa00000006000200fa000e
:10282000000f78001e007800900078001e007800ed
:10283000100090004afb07008000eb000000eb0056
:10284000bbfa0700200020000080fa00000006000c
:102850000a00fa0040479800514798003207980054
:10286000430798003e00900010079800ce009000ab
:10287000010f7800000000004e409000d9fa0700d8
:102880000000e000fcff32008e007800e0402100f4
:10289000a7fa0700650047001100200030fb070081
:1028a0008000eb00e0922100b3fa07005ffb070015
:1028b000000000000efb0700e10f5000fdff32009a
:1028c0000080fa00000006000600fa00004f7800c1
:1028d0001107980022079800000000001e407800b1
:1028e000c0fa07000000e000fcff3200ae009000dc
:1028f0001e0090001afb070047fb070000000000c5
:10290000fbfa0700e10f5000fdff32000080fa00e3
:10291000000006000400fa00204798000040eb0089
:10292000004f7800ae409000114798002200200030
:102930008e007800c0c3b30022ff07000080fa00b9
:10294000000006000400fa002047980000c4b3000d
:10295000004f7800ae409000114798002200200000
:102960008e007800c0c3b30016ff07000080fa0095
:10297000000006000000fa00e0cab300e5ff07000f
:1029800050cdb300e3ff070000c8b300e1ff07002c
:1029900080cab300dfff0700f0c1b300ddff07000e
:1029a00030cdb300dbff07000040eb00d9ff07008c
:1029b00000c4b300d7ff0700d0c8b300d5ff07009d
:1029c00040c1b300d3ff070000c2b300d1ff07002e
:1029d0000040eb00cfff070010cab300cdff070097
:1029e00080ccb300cbff0700a0cdb300c9ff070028
:1029f00020c0b300c7ff070010c8b300c5ff070021
:102a0000f0c8b300c3ff070090cdb300c1ff0700bb
:102a100010cfb300bfff0700b0cdb300bdff07006c
:102a200000c4b300bbff070040cab300b9ff0700f2
:102a300060cab300b7ff0700e0c2b300b5ff0700ec
:102a4000f0cab300b3ff07000080fa0000000600e0
:102a50000200fa00000f7800040037001e00780022
:102a6000104078001e0fe800060007001e007800e6
:102a7000104078000004e000f8ff3a000080fa00ff
:102a8000000006000400fa00204798000000eb0058
:102a9000000f78000a0037002e4090000000fb0075
:102aa0000002b100e500b9001e004000217b2800b3
:102ab0000080400010407800a2ff07001e0fe800d1
:102ac0001e007800e40f5000f3ff34000040eb00dc
:102ad0009cff07000080fa00000006000200fa00d8
:102ae000004f780010c8b3008aff07001e4078002e
:102af00088ff07000080fa00000006000200fa00cc
:102b00000040eb001c0007000000eb00000f780005
:102b1000030037000040eb008aff07001e0fe800ab
:102b2000f01f20009e007800808f5000f9ff3400d5
:102b30000080fa00000006000400fa002047980018
:102b40002e4090000c0007000000eb00000f780002
:102b5000030037000040eb007aff07001e0fe8007b
:102b6000f00720009e007800808f5000f9ff3400ad
:102b70000080fa00000006000400fa0020479800d8
:102b8000ae40900000cbb30000cf70001e40780034
:102b900060ff07000040eb005eff070000c1b300cc
:102ba0005cff07000080fa00000006000000fa0049
:102bb000007c80000080fa00000006000200fa009d
:102bc000faff0700000f78001e00780024000700bd
:102bd0000004e0000200320000002800710007003d
:102be0001e0078002a0007000004e0000200320006
:102bf000000024006b0007001e0078003200070070
:102c00000004e00002003200002020006500070000
:102c10001e0078003a0007000004e00002003200c5
:102c2000000820005f0007001e0078004200070037
:102c30000004e000020032000004200059000700f8
:102c40001e0078004a0007000004e0000200320085
:102c500000012000530007000080fa000000060079
:102c60000400fa00100798000040eb00004f7800c5
:102c70001e0090000000e00002003d0010c0b30004
:102c8000004f78001e4078000080fa000000060027
:102c90000400fa00100798000040eb00004f780095
:102ca0009e00900000002400008060000000e00012
:102cb0000200320010c0b300004f78001e407800c0
:102cc0000080fa00000006000400fa0010079800d7
:102cd0000040eb00004f78009e0090000020200094
:102ce000008060000000e0000200320010c0b3006d
:102cf000004f78001e4078000080fa0000000600b7
:102d00000400fa00100798000040eb00004f780024
:102d10009e00900000082000008060000000e0009d
:102d20000200320010c0b300004f78001e4078004f
:102d30000080fa00000006000400fa001007980066
:102d40000040eb00004f78009e009000000420003f
:102d5000008060000000e0000200320010c0b300fc
:102d6000004f78001e4078000080fa000000060046
:102d70000400fa00100798000040eb00004f7800b4
:102d80001e009000700060000000e00002003200b1
:102d900010c0b300004f78001e4078000080fa0099
:102da000000006000200fa00000f78009e80ea0092
:102db000007c800000806000007c88000080fa00b9
:102dc000000006000000fa00802fef000080fa00eb
:102dd000000006000000fa00062eef00222eef0091
:102de0003e2eef005a2eef00762eef00f00120006d
:102df00010708800d0ff2f00f07088000080eb007a
:102e0000d0718800f0fe2f00b07288000080eb00c7
:102e1000907388000c2eef00282eef00442eef0058
:102e2000602eef007c2eef000a2eef00262eef0022
:102e3000422eef005e2eef007a2eef00082eef00fc
:102e4000242eef00402eef005c2eef00782eef00d6
:102e5000f001200000708800d0092000e070880098
:102e6000f00c2000c071880000c02200a072880011
:102e7000f0002000807388000000eb005105200066
:102e8000b1468800a10a2000b14688000068880089
:102e900030c4b30028edb700216d800000fc2f0086
:102ea000008060000000a000206d880000802000ed
:102eb00051052000b1468800a10a2000b1468800d3
:0c2ec000006888000080fa000000060096
:020000040000fa
:102ecc00861100002000000080000000141000009b
:102edc000200000082000000ffff00000e10000046
:102eec000600000080000000a61100002000000079
:102efc00820000004a0b84000ba00b00060c520051
:102f0c000cb60b00900c5c000b660b00700b7a007f
:102f1c000bc60b00d00bda000b360b00e40b0000d9
:102f2c006011000026000000800000001610000058
:102f3c000801000080000000001000000e000000de
:102f4c00800000001e110000420000008200000002
:102f5c0022112400112411000100030000000000c4
:102f6c0000000000000000000000680006000000e7
:102f7c000000000000160600e20500000000000042
:102f8c000000000000000000000000000000000035
:102f9c000000000000000000000000000000000025
:102fac000000000000000000c6110000020000003c
:082fbc0080000000000000008d
:020000040000fa
:102fc4000000fa0010002300307c88006009200013
:102fd400407c88008c2fef0010042000507c880077
:102fe40010102000707c880060092000807c88001c
:102ff40010042000907c88009a2fef00b82fef0077
:10300400ba2fef00be2fef00002def00a02fef002e
:10301400a42fef00a62fef00a82fef00aa2fef0098
:10302400ae2fef00b02fef00b22fef0072002000a0
:1030340080072000a109200053f82000804978006f
:1030440081497800824978000001eb006004200087
:103054007105200043f820008049780081497800f8
:10306400824978000080fa00000006000000fa009f
:10307400707c8000ee800a00000000000080fb00ed
:1030840000f0a7000000ea000000ea004f00de00a4
:10309400004078000080fa00000006000200fa00f8
:1030a400000f78000300370000fa20000100200020
:1030b400730007001e00780000f0a7000000ea007b
:1030c4000000ea004f00de00004078001e0fe90017
:1030d4000004e000f4ff3a000080fa00000006005b
:1030e4000200fa00000f78000500370000082000f5
:1030f400010020006200070001fe2f001e8f400027
:103104001e007800ff0f5000f8ff3e000300370058
:103114004000200001002000590007001e00780034
:1031240000f0a7000000ea000000ea004f00de0003
:10313400004078001e0fe9000004e000f4ff3a00ac
:103144000080fa00000006000000fa0041428000fe
:10315400f0f82f00008060000040a000404288008a
:103164004142800080ff2f00008060000000a0002a
:1031740040428800f1448000f0f82f000080600095
:103184000040a000f04488003142800080ff2f00fe
:10319400008060000000a00030428800c14280002e
:1031a400f0f82f00008060000040a000c0428800ba
:1031b40021428000f0ff28000080600000c0a000d1
:1031c400204288000080fa00000006000200fa0095
:1031d400000f780021028000200f20000080600092
:1031e4001e007000200288000080fa000000060023
:1031f4000000fa00c3e8a80000000000000000007e
:103204000080fa00000006000000fa00f0fe07004b
:103214006bff0700ccff07001efa0700f4ff07004e
:1032240000022000e9ff07000080fa000000060009
:103234000200fa00000f7800100020000080fa005d
:10324400000006000200fa00000f78005000200081
:103254000080fa00000006000200fa00000f780067
:10326400300020000080fa00000006000200fa008e
:10327400000f7800200020000080fa000000060003
:020000040000fa
:10328400f03fb1000180b10006003500ee030900f3
:1032940000000000403fb1000180b100fbff3d0091
:1032a4001000b000203fb00002003500008009008b
:0832b40000000000000006000c
:020000040000fa
:1032bc000200fa00000f78009e007800a1808800c0
:1032cc00ffff37000000fa0060182100800778002b
:1032dc00e0192100000188000080fa0000000600bf
:1032ec000000fa00c6ff07002099280025f6070009
:1032fc0000902000d1032000dfff0700faff370009
:020000040000fa
:020000040005f5
:047e0000ffffff0081
:020000040000fa
:020000040005f5
:047e2000ffffff0061
:020000040000fa
:020000040005f5
:047e30007fffff00d1
:020000040000fa
:020000040005f5
:047e3800bfffff0089
:020000040000fa
:020000040005f5
:047e40007f7fff0041
:020000040000fa
:020000040005f5
:047e4800ffffff0039
:020000040000fa
:020000040005f5
:047e5000dfffff0051
:020000040000fa
:020000040005f5
:047e58000000ff0027
:020000040000fa
:020000040005f5
:047e60000000ff001f
:020000040000fa
:020000040005f5
:047e68000000ff0017
:020000040000fa
:020000040005f5
:047e70000000ff000f
:020000040000fa
:020000040005f5
:047e7800ffffff0009
:020000040000fa
:020000040005f5
:047e8000fffcff0004
:020000040000fa
:020000040005f5
:047e8800ffffff00f9
:020000040000fa
:020000040005f5
:047ff800ffffff0088
:020000040000fa
:020000040100f9
:04300000ffffff00cf
:00000001FF
